{
  "contractName": "ContractThatCallsPublicFunctions",
  "abi": [
    {
      "inputs": [
        {
          "internalType": "address",
          "name": "contractAddress",
          "type": "address"
        },
        {
          "internalType": "string",
          "name": "foo",
          "type": "string"
        }
      ],
      "name": "callSetFoo",
      "outputs": [
        {
          "internalType": "bool",
          "name": "",
          "type": "bool"
        }
      ],
      "stateMutability": "nonpayable",
      "type": "function"
    },
    {
      "inputs": [
        {
          "internalType": "address",
          "name": "contractAddress",
          "type": "address"
        }
      ],
      "name": "callGetFoo",
      "outputs": [
        {
          "internalType": "string",
          "name": "",
          "type": "string"
        }
      ],
      "stateMutability": "view",
      "type": "function"
    },
    {
      "inputs": [
        {
          "internalType": "address",
          "name": "contractAddress",
          "type": "address"
        },
        {
          "internalType": "uint256",
          "name": "bar",
          "type": "uint256"
        }
      ],
      "name": "callSetBar",
      "outputs": [
        {
          "internalType": "bool",
          "name": "",
          "type": "bool"
        }
      ],
      "stateMutability": "nonpayable",
      "type": "function"
    },
    {
      "inputs": [
        {
          "internalType": "address",
          "name": "contractAddress",
          "type": "address"
        }
      ],
      "name": "callGetBar",
      "outputs": [
        {
          "internalType": "uint256",
          "name": "",
          "type": "uint256"
        }
      ],
      "stateMutability": "view",
      "type": "function"
    }
  ],
  "bytecode": "0x608060405234801561001057600080fd5b506104db806100206000396000f3fe608060405234801561001057600080fd5b506004361061004c5760003560e01c80630b79399d14610051578063e13b888f146100e5578063e6e0454d14610180578063f79412e5146101b8575b600080fd5b6100d16004803603604081101561006757600080fd5b6001600160a01b03823516919081019060408101602082013564010000000081111561009257600080fd5b8201836020820111156100a457600080fd5b803590602001918460018302840111640100000000831117156100c657600080fd5b5090925090506101e4565b604080519115158252519081900360200190f35b61010b600480360360208110156100fb57600080fd5b50356001600160a01b031661028e565b6040805160208082528351818301528351919283929083019185019080838360005b8381101561014557818101518382015260200161012d565b50505050905090810190601f1680156101725780820380516001836020036101000a031916815260200191505b509250505060405180910390f35b6101a66004803603602081101561019657600080fd5b50356001600160a01b03166103bd565b60408051918252519081900360200190f35b6100d1600480360360408110156101ce57600080fd5b506001600160a01b03813516906020013561042a565b6040516367e58ab360e11b8152602060048201908152602482018390526000916001600160a01b0386169163cfcb156691869186918190604401848480828437600081840152601f19601f8201169050808301925050509350505050602060405180830381600087803b15801561025a57600080fd5b505af115801561026e573d6000803e3d6000fd5b505050506040513d602081101561028457600080fd5b5051949350505050565b6060816001600160a01b031663243dc8da6040518163ffffffff1660e01b815260040160006040518083038186803b1580156102c957600080fd5b505afa1580156102dd573d6000803e3d6000fd5b505050506040513d6000823e601f3d908101601f19168201604052602081101561030657600080fd5b810190808051604051939291908464010000000082111561032657600080fd5b90830190602082018581111561033b57600080fd5b825164010000000081118282018810171561035557600080fd5b82525081516020918201929091019080838360005b8381101561038257818101518382015260200161036a565b50505050905090810190601f1680156103af5780820380516001836020036101000a031916815260200191505b506040525050509050919050565b6000816001600160a01b03166367a23d136040518163ffffffff1660e01b815260040160206040518083038186803b1580156103f857600080fd5b505afa15801561040c573d6000803e3d6000fd5b505050506040513d602081101561042257600080fd5b505192915050565b6000826001600160a01b031663352d3fba836040518263ffffffff1660e01b815260040180828152602001915050602060405180830381600087803b15801561047257600080fd5b505af1158015610486573d6000803e3d6000fd5b505050506040513d602081101561049c57600080fd5b5051939250505056fea26469706673582212202e90127b474a7511303ca6c19a2aea3b948864c12ad5218b6f9ae8b5b4d2492264736f6c634300060c0033",
  "immutableReferences": {},
  "source": "/**\n * SPDX-License-Identifier: MIT\n *\n * Copyright (c) 2018-2020 CENTRE SECZ\n *\n * Permission is hereby granted, free of charge, to any person obtaining a copy\n * of this software and associated documentation files (the \"Software\"), to deal\n * in the Software without restriction, including without limitation the rights\n * to use, copy, modify, merge, publish, distribute, sublicense, and/or sell\n * copies of the Software, and to permit persons to whom the Software is\n * furnished to do so, subject to the following conditions:\n *\n * The above copyright notice and this permission notice shall be included in\n * copies or substantial portions of the Software.\n *\n * THE SOFTWARE IS PROVIDED \"AS IS\", WITHOUT WARRANTY OF ANY KIND, EXPRESS OR\n * IMPLIED, INCLUDING BUT NOT LIMITED TO THE WARRANTIES OF MERCHANTABILITY,\n * FITNESS FOR A PARTICULAR PURPOSE AND NONINFRINGEMENT. IN NO EVENT SHALL THE\n * AUTHORS OR COPYRIGHT HOLDERS BE LIABLE FOR ANY CLAIM, DAMAGES OR OTHER\n * LIABILITY, WHETHER IN AN ACTION OF CONTRACT, TORT OR OTHERWISE, ARISING FROM,\n * OUT OF OR IN CONNECTION WITH THE SOFTWARE OR THE USE OR OTHER DEALINGS IN THE\n * SOFTWARE.\n */\n\npragma solidity 0.6.12;\n\nimport { ContractWithPublicFunctions } from \"./ContractWithPublicFunctions.sol\";\n\ncontract ContractThatCallsPublicFunctions {\n    function callSetFoo(address contractAddress, string calldata foo)\n        external\n        returns (bool)\n    {\n        return ContractWithPublicFunctions(contractAddress).setFoo(foo);\n    }\n\n    function callGetFoo(address contractAddress)\n        external\n        view\n        returns (string memory)\n    {\n        return ContractWithPublicFunctions(contractAddress).getFoo();\n    }\n\n    function callSetBar(address contractAddress, uint256 bar)\n        external\n        returns (bool)\n    {\n        return ContractWithPublicFunctions(contractAddress).setBar(bar);\n    }\n\n    function callGetBar(address contractAddress)\n        external\n        view\n        returns (uint256)\n    {\n        return ContractWithPublicFunctions(contractAddress).getBar();\n    }\n}\n",
  "sourcePath": "/Users/usr0102794/centre-tokens/contracts/test/ContractThatCallsPublicFunctions.sol",
  "compiler": {
    "name": "solc",
    "version": "0.6.12+commit.27d51765.Emscripten.clang"
  },
  "schemaVersion": "3.2.2",
  "updatedAt": "2020-09-05T23:45:29.758Z",
  "devdoc": {
    "kind": "dev",
    "methods": {},
    "version": 1
  },
  "userdoc": {
    "kind": "user",
    "methods": {},
    "version": 1
  }
}