{
  "contractName": "ContractWithPublicFunctions",
  "abi": [
    {
      "inputs": [
        {
          "internalType": "string",
          "name": "foo",
          "type": "string"
        }
      ],
      "name": "setFoo",
      "outputs": [
        {
          "internalType": "bool",
          "name": "",
          "type": "bool"
        }
      ],
      "stateMutability": "nonpayable",
      "type": "function"
    },
    {
      "inputs": [],
      "name": "getFoo",
      "outputs": [
        {
          "internalType": "string",
          "name": "",
          "type": "string"
        }
      ],
      "stateMutability": "view",
      "type": "function"
    },
    {
      "inputs": [
        {
          "internalType": "uint256",
          "name": "bar",
          "type": "uint256"
        }
      ],
      "name": "setBar",
      "outputs": [
        {
          "internalType": "bool",
          "name": "",
          "type": "bool"
        }
      ],
      "stateMutability": "nonpayable",
      "type": "function"
    },
    {
      "inputs": [],
      "name": "getBar",
      "outputs": [
        {
          "internalType": "uint256",
          "name": "",
          "type": "uint256"
        }
      ],
      "stateMutability": "view",
      "type": "function"
    },
    {
      "inputs": [],
      "name": "hushLinters",
      "outputs": [],
      "stateMutability": "nonpayable",
      "type": "function"
    }
  ],
  "bytecode": "0x608060405234801561001057600080fd5b506103f5806100206000396000f3fe608060405234801561001057600080fd5b50600436106100575760003560e01c8063243dc8da1461005c578063352d3fba146100d957806367a23d131461010a578063c75ad66214610124578063cfcb15661461012e575b600080fd5b6100646101d4565b6040805160208082528351818301528351919283929083019185019080838360005b8381101561009e578181015183820152602001610086565b50505050905090810190601f1680156100cb5780820380516001836020036101000a031916815260200191505b509250505060405180910390f35b6100f6600480360360208110156100ef57600080fd5b503561026a565b604080519115158252519081900360200190f35b610112610272565b60408051918252519081900360200190f35b61012c610278565b005b6100f66004803603602081101561014457600080fd5b81019060208101813564010000000081111561015f57600080fd5b82018360208201111561017157600080fd5b8035906020019184600183028401116401000000008311171561019357600080fd5b91908080601f01602080910402602001604051908101604052809392919081815260200183838082843760009201919091525092955061030e945050505050565b60008054604080516020601f60026000196101006001881615020190951694909404938401819004810282018101909252828152606093909290918301828280156102605780601f1061023557610100808354040283529160200191610260565b820191906000526020600020905b81548152906001019060200180831161024357829003601f168201915b5050505050905090565b600190815590565b60015490565b6102886102836101d4565b61030e565b6102c2576040805162461bcd60e51b815260206004808301919091526024820152630d0eae6d60e31b604482015290519081900360640190fd5b6102d26102cd610272565b61026a565b61030c576040805162461bcd60e51b815260206004808301919091526024820152630d0eae6d60e31b604482015290519081900360640190fd5b565b8051600090610323908290602085019061032c565b50600192915050565b828054600181600116156101000203166002900490600052602060002090601f016020900481019282601f1061036d57805160ff191683800117855561039a565b8280016001018555821561039a579182015b8281111561039a57825182559160200191906001019061037f565b506103a69291506103aa565b5090565b5b808211156103a657600081556001016103ab56fea264697066735822122047d08485a352b9dca82c351a01350fbc75ac0381b09457592d19d441936ae1ca64736f6c634300060c0033",
  "immutableReferences": {},
  "source": "/**\n * SPDX-License-Identifier: MIT\n *\n * Copyright (c) 2018-2020 CENTRE SECZ\n *\n * Permission is hereby granted, free of charge, to any person obtaining a copy\n * of this software and associated documentation files (the \"Software\"), to deal\n * in the Software without restriction, including without limitation the rights\n * to use, copy, modify, merge, publish, distribute, sublicense, and/or sell\n * copies of the Software, and to permit persons to whom the Software is\n * furnished to do so, subject to the following conditions:\n *\n * The above copyright notice and this permission notice shall be included in\n * copies or substantial portions of the Software.\n *\n * THE SOFTWARE IS PROVIDED \"AS IS\", WITHOUT WARRANTY OF ANY KIND, EXPRESS OR\n * IMPLIED, INCLUDING BUT NOT LIMITED TO THE WARRANTIES OF MERCHANTABILITY,\n * FITNESS FOR A PARTICULAR PURPOSE AND NONINFRINGEMENT. IN NO EVENT SHALL THE\n * AUTHORS OR COPYRIGHT HOLDERS BE LIABLE FOR ANY CLAIM, DAMAGES OR OTHER\n * LIABILITY, WHETHER IN AN ACTION OF CONTRACT, TORT OR OTHERWISE, ARISING FROM,\n * OUT OF OR IN CONNECTION WITH THE SOFTWARE OR THE USE OR OTHER DEALINGS IN THE\n * SOFTWARE.\n */\n\npragma solidity 0.6.12;\n\ncontract ContractWithPublicFunctions {\n    string private _foo;\n    uint256 private _bar;\n\n    function setFoo(string memory foo) public returns (bool) {\n        _foo = foo;\n        return true;\n    }\n\n    function getFoo() public view returns (string memory) {\n        return _foo;\n    }\n\n    function setBar(uint256 bar) public returns (bool) {\n        _bar = bar;\n        return true;\n    }\n\n    function getBar() public view returns (uint256) {\n        return _bar;\n    }\n\n    function hushLinters() external {\n        require(setFoo(getFoo()), \"hush\");\n        require(setBar(getBar()), \"hush\");\n    }\n}\n",
  "sourcePath": "/Users/usr0102794/centre-tokens/contracts/test/ContractWithPublicFunctions.sol",
  "compiler": {
    "name": "solc",
    "version": "0.6.12+commit.27d51765.Emscripten.clang"
  },
  "schemaVersion": "3.2.2",
  "updatedAt": "2020-09-05T23:45:29.765Z",
  "devdoc": {
    "kind": "dev",
    "methods": {},
    "version": 1
  },
  "userdoc": {
    "kind": "user",
    "methods": {},
    "version": 1
  }
}