{
  "contractName": "FiatTokenUtil",
  "abi": [
    {
      "inputs": [
        {
          "internalType": "address",
          "name": "fiatToken",
          "type": "address"
        }
      ],
      "stateMutability": "nonpayable",
      "type": "constructor"
    },
    {
      "anonymous": false,
      "inputs": [
        {
          "indexed": true,
          "internalType": "address",
          "name": "authorizer",
          "type": "address"
        },
        {
          "indexed": true,
          "internalType": "bytes32",
          "name": "nonce",
          "type": "bytes32"
        }
      ],
      "name": "TransferFailed",
      "type": "event"
    },
    {
      "inputs": [
        {
          "internalType": "bytes",
          "name": "params",
          "type": "bytes"
        },
        {
          "internalType": "bytes",
          "name": "signatures",
          "type": "bytes"
        },
        {
          "internalType": "bool",
          "name": "atomic",
          "type": "bool"
        }
      ],
      "name": "transferWithMultipleAuthorizations",
      "outputs": [
        {
          "internalType": "bool",
          "name": "",
          "type": "bool"
        }
      ],
      "stateMutability": "nonpayable",
      "type": "function"
    }
  ],
  "bytecode": "0x608060405234801561001057600080fd5b506040516108363803806108368339818101604052602081101561003357600080fd5b5051600080546001600160a01b039092166001600160a01b03199092169190911790556107d1806100656000396000f3fe608060405234801561001057600080fd5b506004361061002b5760003560e01c8063e5c880f014610030575b600080fd5b6100f46004803603606081101561004657600080fd5b81019060208101813564010000000081111561006157600080fd5b82018360208201111561007357600080fd5b8035906020019184600183028401116401000000008311171561009557600080fd5b9193909290916020810190356401000000008111156100b357600080fd5b8201836020820111156100c557600080fd5b803590602001918460018302840111640100000000831117156100e757600080fd5b9193509150351515610108565b604080519115158252519081900360200190f35b600060a885048061014a5760405162461bcd60e51b81526004018080602001828103825260238152602001806107796023913960400191505060405180910390fd5b60a88102861461018b5760405162461bcd60e51b815260040180806020018281038252602a815260200180610721602a913960400191505060405180910390fd5b806041850414801561019f57506041810284145b6101da5760405162461bcd60e51b815260040180806020018281038252602e81526020018061074b602e913960400191505060405180910390fd5b6000805b828110156105d057600060a8820290506000604183029050606061023c8c8c85908660280192610210939291906106f8565b6040516020018083838082843780830192505050925050506040516020818303038152906040526105dc565b905060608c8c856028019060a8870192610258939291906106f8565b604051602001808383808284378083019250505092505050604051602081830303815290604052905060008b8b8581811061028f57fe5b9050013560f81c60f81b60f81c905060608c8c866001019060418801926102b8939291906106f8565b60405160200180838380828437808301925050509250505060405160208183030381529060405290506000606060008054906101000a90046001600160a01b03166001600160a01b031663e3ee160e60e01b878787604051602001808260ff1681526020019150506040516020818303038152906040528760405160200180866001600160e01b031916815260040185805190602001908083835b602083106103725780518252601f199092019160209182019101610353565b51815160209384036101000a600019018019909216911617905287519190930192870191508083835b602083106103ba5780518252601f19909201916020918201910161039b565b51815160209384036101000a600019018019909216911617905286519190930192860191508083835b602083106104025780518252601f1990920191602091820191016103e3565b51815160209384036101000a600019018019909216911617905285519190930192850191508083835b6020831061044a5780518252601f19909201916020918201910161042b565b6001836020036101000a038019825116818451168082178552505050505050905001955050505050506040516020818303038152906040526040518082805190602001908083835b602083106104b15780518252601f199092019160209182019101610492565b6001836020036101000a0380198251168184511680821785525050505050509050019150506000604051808303816000865af19150503d8060008114610513576040519150601f19603f3d011682016040523d82523d6000602084013e610518565b606091505b50915091508c8015610528575081155b156105365761053681610616565b8115610547576001909901986105bc565b600086806020019051604081101561055e57600080fd5b505186519091506000906020880190608081101561057b57600080fd5b506060015160405190915081906001600160a01b038416907f13cab104924a28ca77b3228596ebc8e597aa628ce47d39429f3cb62b9a9ac60f90600090a350505b5050600190960195506101de945050505050565b50149695505050505050565b6014810151602890910151604080516001600160a01b03938416602082015292909116828201528051808303820181526060909201905290565b60648151101561066d576040805162461bcd60e51b815260206004820152601a60248201527f46696174546f6b656e5574696c3a2063616c6c206661696c6564000000000000604482015290519081900360640190fd5b60405162461bcd60e51b8152602060048201908152604483810180516024850152805190938493928392910190606487019080838360005b838110156106bd5781810151838201526020016106a5565b50505050905090810190601f1680156106ea5780820380516001836020036101000a031916815260200191505b509250505060405180910390fd5b60008085851115610707578182fd5b83861115610713578182fd5b505082019391909203915056fe46696174546f6b656e5574696c3a206c656e677468206f6620706172616d7320697320696e76616c696446696174546f6b656e5574696c3a206c656e677468206f66207369676e61747572657320697320696e76616c696446696174546f6b656e5574696c3a206e6f207472616e736665722070726f7669646564a2646970667358221220e30455f9d984fb0fe934f0af810d86dc490972d10c04a66edabd9aa657016c1564736f6c634300060c0033",
  "immutableReferences": {},
  "source": "/**\n * SPDX-License-Identifier: MIT\n *\n * Copyright (c) 2018-2020 CENTRE SECZ\n *\n * Permission is hereby granted, free of charge, to any person obtaining a copy\n * of this software and associated documentation files (the \"Software\"), to deal\n * in the Software without restriction, including without limitation the rights\n * to use, copy, modify, merge, publish, distribute, sublicense, and/or sell\n * copies of the Software, and to permit persons to whom the Software is\n * furnished to do so, subject to the following conditions:\n *\n * The above copyright notice and this permission notice shall be included in\n * copies or substantial portions of the Software.\n *\n * THE SOFTWARE IS PROVIDED \"AS IS\", WITHOUT WARRANTY OF ANY KIND, EXPRESS OR\n * IMPLIED, INCLUDING BUT NOT LIMITED TO THE WARRANTIES OF MERCHANTABILITY,\n * FITNESS FOR A PARTICULAR PURPOSE AND NONINFRINGEMENT. IN NO EVENT SHALL THE\n * AUTHORS OR COPYRIGHT HOLDERS BE LIABLE FOR ANY CLAIM, DAMAGES OR OTHER\n * LIABILITY, WHETHER IN AN ACTION OF CONTRACT, TORT OR OTHERWISE, ARISING FROM,\n * OUT OF OR IN CONNECTION WITH THE SOFTWARE OR THE USE OR OTHER DEALINGS IN THE\n * SOFTWARE.\n */\n\npragma solidity 0.6.12;\n\ncontract FiatTokenUtil {\n    // (address,address,uint256,uint256,uint256,bytes32) = 20*2 + 32*4 = 168\n    uint256 private constant _TRANSFER_PARAM_SIZE = 168;\n    // (uint8,bytes32,bytes32) = 1 + 32*2 = 65\n    uint256 private constant _SIGNATURE_SIZE = 65;\n    // keccak256(\"transferWithAuthorization(address,address,uint256,uint256,uint256,bytes32,uint8,bytes32,bytes32)\")[0:4]\n    bytes4 private constant _TRANSFER_WITH_AUTHORIZATION_SELECTOR = 0xe3ee160e;\n\n    address private _fiatToken;\n\n    event TransferFailed(address indexed authorizer, bytes32 indexed nonce);\n\n    /**\n     * @notice Constructor\n     * @dev If FiatTokenProxy is used to hold state and delegate calls, the\n     * proxy's address should be provided, not the implementation address\n     * @param fiatToken Address of the FiatToken contract\n     */\n    constructor(address fiatToken) public {\n        _fiatToken = fiatToken;\n    }\n\n    /**\n     * @notice Execute multiple authorized ERC20 Transfers\n     * @dev The length of params must be multiples of 168, each representing\n     * encode-packed data containing from[20] + to[20] + value[32] +\n     * validAfter[32] + validBefore[32] + nonce[32], and the length of\n     * signatures must be multiples of 65, each representing encode-packed data\n     * containing v[1] + r[32] + s[32].\n     * @param params      Concatenated, encode-packed parameters\n     * @param signatures  Concatenated, encode-packed signatures\n     * @param atomic      If true, revert if any of the transfers fail\n     * @return            True if every transfer was successful\n     */\n    function transferWithMultipleAuthorizations(\n        bytes calldata params,\n        bytes calldata signatures,\n        bool atomic\n    ) external returns (bool) {\n        uint256 num = params.length / _TRANSFER_PARAM_SIZE;\n        require(num > 0, \"FiatTokenUtil: no transfer provided\");\n        require(\n            num * _TRANSFER_PARAM_SIZE == params.length,\n            \"FiatTokenUtil: length of params is invalid\"\n        );\n        require(\n            signatures.length / _SIGNATURE_SIZE == num &&\n                num * _SIGNATURE_SIZE == signatures.length,\n            \"FiatTokenUtil: length of signatures is invalid\"\n        );\n\n        uint256 numSuccessful = 0;\n\n        for (uint256 i = 0; i < num; i++) {\n            uint256 paramsOffset = i * _TRANSFER_PARAM_SIZE;\n            uint256 sigOffset = i * _SIGNATURE_SIZE;\n\n            // extract from and to\n            bytes memory fromTo = _unpackAddresses(\n                abi.encodePacked(params[paramsOffset:paramsOffset + 40])\n            );\n            // extract value, validAfter, validBefore, and nonce\n            bytes memory other4 = abi.encodePacked(\n                params[paramsOffset + 40:paramsOffset + _TRANSFER_PARAM_SIZE]\n            );\n            // extract v\n            uint8 v = uint8(signatures[sigOffset]);\n            // extract r and s\n            bytes memory rs = abi.encodePacked(\n                signatures[sigOffset + 1:sigOffset + _SIGNATURE_SIZE]\n            );\n\n            // Call transferWithAuthorization with the extracted parameters\n            // solhint-disable-next-line avoid-low-level-calls\n            (bool success, bytes memory returnData) = _fiatToken.call(\n                abi.encodePacked(\n                    _TRANSFER_WITH_AUTHORIZATION_SELECTOR,\n                    fromTo,\n                    other4,\n                    abi.encode(v),\n                    rs\n                )\n            );\n\n            // Revert if atomic is true, and the call was not successful\n            if (atomic && !success) {\n                _revertWithReasonFromReturnData(returnData);\n            }\n\n            // Increment the number of successful transfers\n            if (success) {\n                numSuccessful++;\n            } else {\n                // extract from\n                (address from, ) = abi.decode(fromTo, (address, address));\n                // extract nonce\n                (, , , bytes32 nonce) = abi.decode(\n                    other4,\n                    (uint256, uint256, uint256, bytes32)\n                );\n                emit TransferFailed(from, nonce);\n            }\n        }\n\n        // Return true if all transfers were successful\n        return numSuccessful == num;\n    }\n\n    /**\n     * @dev Converts encodePacked pair of addresses (20bytes + 20 bytes) to\n     * regular ABI-encoded pair of addresses (32bytes + 32bytes)\n     * @param packed Packed data (40 bytes)\n     * @return Unpacked data (64 bytes)\n     */\n    function _unpackAddresses(bytes memory packed)\n        private\n        pure\n        returns (bytes memory)\n    {\n        address addr1;\n        address addr2;\n        assembly {\n            addr1 := mload(add(packed, 20))\n            addr2 := mload(add(packed, 40))\n        }\n        return abi.encode(addr1, addr2);\n    }\n\n    /**\n     * @dev Revert with reason string extracted from the return data\n     * @param returnData    Return data from a call\n     */\n    function _revertWithReasonFromReturnData(bytes memory returnData)\n        private\n        pure\n    {\n        // Return data will be at least 100 bytes if it contains the reason\n        // string: Error(string) selector[4] + string offset[32] + string\n        // length[32] + string data[32] = 100\n        if (returnData.length < 100) {\n            revert(\"FiatTokenUtil: call failed\");\n        }\n\n        // If the reason string exists, extract it, and bubble it up\n        string memory reason;\n        assembly {\n            // Skip over the bytes length[32] + Error(string) selector[4] +\n            // string offset[32] = 68 (0x44)\n            reason := add(returnData, 0x44)\n        }\n\n        revert(reason);\n    }\n}\n",
  "sourcePath": "/Users/usr0102794/centre-tokens/contracts/v2/FiatTokenUtil.sol",
  "compiler": {
    "name": "solc",
    "version": "0.6.12+commit.27d51765.Emscripten.clang"
  },
  "schemaVersion": "3.2.2",
  "updatedAt": "2020-09-05T23:45:29.853Z",
  "devdoc": {
    "kind": "dev",
    "methods": {
      "constructor": {
        "details": "If FiatTokenProxy is used to hold state and delegate calls, the proxy's address should be provided, not the implementation address",
        "params": {
          "fiatToken": "Address of the FiatToken contract"
        }
      },
      "transferWithMultipleAuthorizations(bytes,bytes,bool)": {
        "details": "The length of params must be multiples of 168, each representing encode-packed data containing from[20] + to[20] + value[32] + validAfter[32] + validBefore[32] + nonce[32], and the length of signatures must be multiples of 65, each representing encode-packed data containing v[1] + r[32] + s[32].",
        "params": {
          "atomic": "If true, revert if any of the transfers fail",
          "params": "Concatenated, encode-packed parameters",
          "signatures": "Concatenated, encode-packed signatures"
        },
        "returns": {
          "_0": "True if every transfer was successful"
        }
      }
    },
    "version": 1
  },
  "userdoc": {
    "kind": "user",
    "methods": {
      "constructor": "Constructor",
      "transferWithMultipleAuthorizations(bytes,bytes,bool)": {
        "notice": "Execute multiple authorized ERC20 Transfers"
      }
    },
    "version": 1
  }
}