{
  "contractName": "Pausable",
  "abi": [
    {
      "anonymous": false,
      "inputs": [
        {
          "indexed": false,
          "internalType": "address",
          "name": "previousOwner",
          "type": "address"
        },
        {
          "indexed": false,
          "internalType": "address",
          "name": "newOwner",
          "type": "address"
        }
      ],
      "name": "OwnershipTransferred",
      "type": "event"
    },
    {
      "anonymous": false,
      "inputs": [],
      "name": "Pause",
      "type": "event"
    },
    {
      "anonymous": false,
      "inputs": [
        {
          "indexed": true,
          "internalType": "address",
          "name": "newAddress",
          "type": "address"
        }
      ],
      "name": "PauserChanged",
      "type": "event"
    },
    {
      "anonymous": false,
      "inputs": [],
      "name": "Unpause",
      "type": "event"
    },
    {
      "inputs": [],
      "name": "owner",
      "outputs": [
        {
          "internalType": "address",
          "name": "",
          "type": "address"
        }
      ],
      "stateMutability": "view",
      "type": "function"
    },
    {
      "inputs": [],
      "name": "paused",
      "outputs": [
        {
          "internalType": "bool",
          "name": "",
          "type": "bool"
        }
      ],
      "stateMutability": "view",
      "type": "function"
    },
    {
      "inputs": [],
      "name": "pauser",
      "outputs": [
        {
          "internalType": "address",
          "name": "",
          "type": "address"
        }
      ],
      "stateMutability": "view",
      "type": "function"
    },
    {
      "inputs": [
        {
          "internalType": "address",
          "name": "newOwner",
          "type": "address"
        }
      ],
      "name": "transferOwnership",
      "outputs": [],
      "stateMutability": "nonpayable",
      "type": "function"
    },
    {
      "inputs": [],
      "name": "pause",
      "outputs": [],
      "stateMutability": "nonpayable",
      "type": "function"
    },
    {
      "inputs": [],
      "name": "unpause",
      "outputs": [],
      "stateMutability": "nonpayable",
      "type": "function"
    },
    {
      "inputs": [
        {
          "internalType": "address",
          "name": "_newPauser",
          "type": "address"
        }
      ],
      "name": "updatePauser",
      "outputs": [],
      "stateMutability": "nonpayable",
      "type": "function"
    }
  ],
  "bytecode": "0x60806040526001805460ff60a01b1916905534801561001d57600080fd5b506100273361002c565b61004e565b600080546001600160a01b0319166001600160a01b0392909216919091179055565b6105128061005d6000396000f3fe608060405234801561001057600080fd5b506004361061007d5760003560e01c80638456cb591161005b5780638456cb59146100ce5780638da5cb5b146100d65780639fd0506d146100fa578063f2fde38b146101025761007d565b80633f4ba83a14610082578063554bab3c1461008c5780635c975abb146100b2575b600080fd5b61008a610128565b005b61008a600480360360208110156100a257600080fd5b50356001600160a01b03166101a9565b6100ba61029d565b604080519115158252519081900360200190f35b61008a6102ad565b6100de610334565b604080516001600160a01b039092168252519081900360200190f35b6100de610343565b61008a6004803603602081101561011857600080fd5b50356001600160a01b0316610352565b6001546001600160a01b031633146101715760405162461bcd60e51b81526004018080602001828103825260228152602001806104bb6022913960400191505060405180910390fd5b6001805460ff60a01b191690556040517f7805862f689e2f13df9f062ff482ad3ad112aca9e0847911ed832e158c525b3390600090a1565b6000546001600160a01b03163314610208576040805162461bcd60e51b815260206004820181905260248201527f4f776e61626c653a2063616c6c6572206973206e6f7420746865206f776e6572604482015290519081900360640190fd5b6001600160a01b03811661024d5760405162461bcd60e51b815260040180806020018281038252602881526020018061046d6028913960400191505060405180910390fd5b600180546001600160a01b0319166001600160a01b0383811691909117918290556040519116907fb80482a293ca2e013eda8683c9bd7fc8347cfdaeea5ede58cba46df502c2a60490600090a250565b600154600160a01b900460ff1681565b6001546001600160a01b031633146102f65760405162461bcd60e51b81526004018080602001828103825260228152602001806104bb6022913960400191505060405180910390fd5b6001805460ff60a01b1916600160a01b1790556040517f6985a02210a168e66602d3235cb6db0e70f92b3ba4d376a33c0f3d9434bff62590600090a1565b6000546001600160a01b031690565b6001546001600160a01b031681565b6000546001600160a01b031633146103b1576040805162461bcd60e51b815260206004820181905260248201527f4f776e61626c653a2063616c6c6572206973206e6f7420746865206f776e6572604482015290519081900360640190fd5b6001600160a01b0381166103f65760405162461bcd60e51b81526004018080602001828103825260268152602001806104956026913960400191505060405180910390fd5b600054604080516001600160a01b039283168152918316602083015280517f8be0079c531659141344cd1fd0a4f28419497f9722a3daafe3b4186f6b6457e09281900390910190a16104478161044a565b50565b600080546001600160a01b0319166001600160a01b039290921691909117905556fe5061757361626c653a206e65772070617573657220697320746865207a65726f20616464726573734f776e61626c653a206e6577206f776e657220697320746865207a65726f20616464726573735061757361626c653a2063616c6c6572206973206e6f742074686520706175736572a264697066735822122084a6456760786250b539f32f07cb5197b7551b937963e7d9cf16d54c40f4aae364736f6c634300060c0033",
  "immutableReferences": {},
  "source": "/**\n * SPDX-License-Identifier: MIT\n *\n * Copyright (c) 2016 Smart Contract Solutions, Inc.\n * Copyright (c) 2018-2020 CENTRE SECZ0\n *\n * Permission is hereby granted, free of charge, to any person obtaining a copy\n * of this software and associated documentation files (the \"Software\"), to deal\n * in the Software without restriction, including without limitation the rights\n * to use, copy, modify, merge, publish, distribute, sublicense, and/or sell\n * copies of the Software, and to permit persons to whom the Software is\n * furnished to do so, subject to the following conditions:\n *\n * The above copyright notice and this permission notice shall be included in\n * copies or substantial portions of the Software.\n *\n * THE SOFTWARE IS PROVIDED \"AS IS\", WITHOUT WARRANTY OF ANY KIND, EXPRESS OR\n * IMPLIED, INCLUDING BUT NOT LIMITED TO THE WARRANTIES OF MERCHANTABILITY,\n * FITNESS FOR A PARTICULAR PURPOSE AND NONINFRINGEMENT. IN NO EVENT SHALL THE\n * AUTHORS OR COPYRIGHT HOLDERS BE LIABLE FOR ANY CLAIM, DAMAGES OR OTHER\n * LIABILITY, WHETHER IN AN ACTION OF CONTRACT, TORT OR OTHERWISE, ARISING FROM,\n * OUT OF OR IN CONNECTION WITH THE SOFTWARE OR THE USE OR OTHER DEALINGS IN THE\n * SOFTWARE.\n */\n\npragma solidity 0.6.12;\n\nimport { Ownable } from \"./Ownable.sol\";\n\n/**\n * @notice Base contract which allows children to implement an emergency stop\n * mechanism\n * @dev Forked from https://github.com/OpenZeppelin/openzeppelin-contracts/blob/feb665136c0dae9912e08397c1a21c4af3651ef3/contracts/lifecycle/Pausable.sol\n * Modifications:\n * 1. Added pauser role, switched pause/unpause to be onlyPauser (6/14/2018)\n * 2. Removed whenNotPause/whenPaused from pause/unpause (6/14/2018)\n * 3. Removed whenPaused (6/14/2018)\n * 4. Switches ownable library to use ZeppelinOS (7/12/18)\n * 5. Remove constructor (7/13/18)\n * 6. Reformat, conform to Solidity 0.6 syntax and add error messages (5/13/20)\n * 7. Make public functions external (5/27/20)\n */\ncontract Pausable is Ownable {\n    event Pause();\n    event Unpause();\n    event PauserChanged(address indexed newAddress);\n\n    address public pauser;\n    bool public paused = false;\n\n    /**\n     * @dev Modifier to make a function callable only when the contract is not paused.\n     */\n    modifier whenNotPaused() {\n        require(!paused, \"Pausable: paused\");\n        _;\n    }\n\n    /**\n     * @dev throws if called by any account other than the pauser\n     */\n    modifier onlyPauser() {\n        require(msg.sender == pauser, \"Pausable: caller is not the pauser\");\n        _;\n    }\n\n    /**\n     * @dev called by the owner to pause, triggers stopped state\n     */\n    function pause() external onlyPauser {\n        paused = true;\n        emit Pause();\n    }\n\n    /**\n     * @dev called by the owner to unpause, returns to normal state\n     */\n    function unpause() external onlyPauser {\n        paused = false;\n        emit Unpause();\n    }\n\n    /**\n     * @dev update the pauser role\n     */\n    function updatePauser(address _newPauser) external onlyOwner {\n        require(\n            _newPauser != address(0),\n            \"Pausable: new pauser is the zero address\"\n        );\n        pauser = _newPauser;\n        emit PauserChanged(pauser);\n    }\n}\n",
  "sourcePath": "/Users/usr0102794/centre-tokens/contracts/v1/Pausable.sol",
  "compiler": {
    "name": "solc",
    "version": "0.6.12+commit.27d51765.Emscripten.clang"
  },
  "schemaVersion": "3.2.2",
  "updatedAt": "2020-09-05T23:45:29.848Z",
  "devdoc": {
    "details": "Forked from https://github.com/OpenZeppelin/openzeppelin-contracts/blob/feb665136c0dae9912e08397c1a21c4af3651ef3/contracts/lifecycle/Pausable.sol Modifications: 1. Added pauser role, switched pause/unpause to be onlyPauser (6/14/2018) 2. Removed whenNotPause/whenPaused from pause/unpause (6/14/2018) 3. Removed whenPaused (6/14/2018) 4. Switches ownable library to use ZeppelinOS (7/12/18) 5. Remove constructor (7/13/18) 6. Reformat, conform to Solidity 0.6 syntax and add error messages (5/13/20) 7. Make public functions external (5/27/20)",
    "kind": "dev",
    "methods": {
      "owner()": {
        "details": "Tells the address of the owner",
        "returns": {
          "_0": "the address of the owner"
        }
      },
      "pause()": {
        "details": "called by the owner to pause, triggers stopped state"
      },
      "transferOwnership(address)": {
        "details": "Allows the current owner to transfer control of the contract to a newOwner.",
        "params": {
          "newOwner": "The address to transfer ownership to."
        }
      },
      "unpause()": {
        "details": "called by the owner to unpause, returns to normal state"
      },
      "updatePauser(address)": {
        "details": "update the pauser role"
      }
    },
    "version": 1
  },
  "userdoc": {
    "kind": "user",
    "methods": {},
    "notice": "Base contract which allows children to implement an emergency stop mechanism",
    "version": 1
  }
}