{
  "contractName": "UpgradedFiatTokenNewFieldsNewLogicTest",
  "abi": [
    {
      "anonymous": false,
      "inputs": [
        {
          "indexed": true,
          "internalType": "address",
          "name": "owner",
          "type": "address"
        },
        {
          "indexed": true,
          "internalType": "address",
          "name": "spender",
          "type": "address"
        },
        {
          "indexed": false,
          "internalType": "uint256",
          "name": "value",
          "type": "uint256"
        }
      ],
      "name": "Approval",
      "type": "event"
    },
    {
      "anonymous": false,
      "inputs": [
        {
          "indexed": true,
          "internalType": "address",
          "name": "_account",
          "type": "address"
        }
      ],
      "name": "Blacklisted",
      "type": "event"
    },
    {
      "anonymous": false,
      "inputs": [
        {
          "indexed": true,
          "internalType": "address",
          "name": "newBlacklister",
          "type": "address"
        }
      ],
      "name": "BlacklisterChanged",
      "type": "event"
    },
    {
      "anonymous": false,
      "inputs": [
        {
          "indexed": true,
          "internalType": "address",
          "name": "burner",
          "type": "address"
        },
        {
          "indexed": false,
          "internalType": "uint256",
          "name": "amount",
          "type": "uint256"
        }
      ],
      "name": "Burn",
      "type": "event"
    },
    {
      "anonymous": false,
      "inputs": [
        {
          "indexed": true,
          "internalType": "address",
          "name": "newMasterMinter",
          "type": "address"
        }
      ],
      "name": "MasterMinterChanged",
      "type": "event"
    },
    {
      "anonymous": false,
      "inputs": [
        {
          "indexed": true,
          "internalType": "address",
          "name": "minter",
          "type": "address"
        },
        {
          "indexed": true,
          "internalType": "address",
          "name": "to",
          "type": "address"
        },
        {
          "indexed": false,
          "internalType": "uint256",
          "name": "amount",
          "type": "uint256"
        }
      ],
      "name": "Mint",
      "type": "event"
    },
    {
      "anonymous": false,
      "inputs": [
        {
          "indexed": true,
          "internalType": "address",
          "name": "minter",
          "type": "address"
        },
        {
          "indexed": false,
          "internalType": "uint256",
          "name": "minterAllowedAmount",
          "type": "uint256"
        }
      ],
      "name": "MinterConfigured",
      "type": "event"
    },
    {
      "anonymous": false,
      "inputs": [
        {
          "indexed": true,
          "internalType": "address",
          "name": "oldMinter",
          "type": "address"
        }
      ],
      "name": "MinterRemoved",
      "type": "event"
    },
    {
      "anonymous": false,
      "inputs": [
        {
          "indexed": false,
          "internalType": "address",
          "name": "previousOwner",
          "type": "address"
        },
        {
          "indexed": false,
          "internalType": "address",
          "name": "newOwner",
          "type": "address"
        }
      ],
      "name": "OwnershipTransferred",
      "type": "event"
    },
    {
      "anonymous": false,
      "inputs": [],
      "name": "Pause",
      "type": "event"
    },
    {
      "anonymous": false,
      "inputs": [
        {
          "indexed": true,
          "internalType": "address",
          "name": "newAddress",
          "type": "address"
        }
      ],
      "name": "PauserChanged",
      "type": "event"
    },
    {
      "anonymous": false,
      "inputs": [
        {
          "indexed": true,
          "internalType": "address",
          "name": "from",
          "type": "address"
        },
        {
          "indexed": true,
          "internalType": "address",
          "name": "to",
          "type": "address"
        },
        {
          "indexed": false,
          "internalType": "uint256",
          "name": "value",
          "type": "uint256"
        }
      ],
      "name": "Transfer",
      "type": "event"
    },
    {
      "anonymous": false,
      "inputs": [
        {
          "indexed": true,
          "internalType": "address",
          "name": "_account",
          "type": "address"
        }
      ],
      "name": "UnBlacklisted",
      "type": "event"
    },
    {
      "anonymous": false,
      "inputs": [],
      "name": "Unpause",
      "type": "event"
    },
    {
      "inputs": [
        {
          "internalType": "address",
          "name": "owner",
          "type": "address"
        },
        {
          "internalType": "address",
          "name": "spender",
          "type": "address"
        }
      ],
      "name": "allowance",
      "outputs": [
        {
          "internalType": "uint256",
          "name": "",
          "type": "uint256"
        }
      ],
      "stateMutability": "view",
      "type": "function"
    },
    {
      "inputs": [
        {
          "internalType": "address",
          "name": "spender",
          "type": "address"
        },
        {
          "internalType": "uint256",
          "name": "value",
          "type": "uint256"
        }
      ],
      "name": "approve",
      "outputs": [
        {
          "internalType": "bool",
          "name": "",
          "type": "bool"
        }
      ],
      "stateMutability": "nonpayable",
      "type": "function"
    },
    {
      "inputs": [
        {
          "internalType": "address",
          "name": "account",
          "type": "address"
        }
      ],
      "name": "balanceOf",
      "outputs": [
        {
          "internalType": "uint256",
          "name": "",
          "type": "uint256"
        }
      ],
      "stateMutability": "view",
      "type": "function"
    },
    {
      "inputs": [
        {
          "internalType": "address",
          "name": "_account",
          "type": "address"
        }
      ],
      "name": "blacklist",
      "outputs": [],
      "stateMutability": "nonpayable",
      "type": "function"
    },
    {
      "inputs": [],
      "name": "blacklister",
      "outputs": [
        {
          "internalType": "address",
          "name": "",
          "type": "address"
        }
      ],
      "stateMutability": "view",
      "type": "function"
    },
    {
      "inputs": [
        {
          "internalType": "uint256",
          "name": "_amount",
          "type": "uint256"
        }
      ],
      "name": "burn",
      "outputs": [],
      "stateMutability": "nonpayable",
      "type": "function"
    },
    {
      "inputs": [
        {
          "internalType": "address",
          "name": "minter",
          "type": "address"
        },
        {
          "internalType": "uint256",
          "name": "minterAllowedAmount",
          "type": "uint256"
        }
      ],
      "name": "configureMinter",
      "outputs": [
        {
          "internalType": "bool",
          "name": "",
          "type": "bool"
        }
      ],
      "stateMutability": "nonpayable",
      "type": "function"
    },
    {
      "inputs": [],
      "name": "currency",
      "outputs": [
        {
          "internalType": "string",
          "name": "",
          "type": "string"
        }
      ],
      "stateMutability": "view",
      "type": "function"
    },
    {
      "inputs": [],
      "name": "decimals",
      "outputs": [
        {
          "internalType": "uint8",
          "name": "",
          "type": "uint8"
        }
      ],
      "stateMutability": "view",
      "type": "function"
    },
    {
      "inputs": [
        {
          "internalType": "address",
          "name": "_account",
          "type": "address"
        }
      ],
      "name": "isBlacklisted",
      "outputs": [
        {
          "internalType": "bool",
          "name": "",
          "type": "bool"
        }
      ],
      "stateMutability": "view",
      "type": "function"
    },
    {
      "inputs": [
        {
          "internalType": "address",
          "name": "account",
          "type": "address"
        }
      ],
      "name": "isMinter",
      "outputs": [
        {
          "internalType": "bool",
          "name": "",
          "type": "bool"
        }
      ],
      "stateMutability": "view",
      "type": "function"
    },
    {
      "inputs": [],
      "name": "masterMinter",
      "outputs": [
        {
          "internalType": "address",
          "name": "",
          "type": "address"
        }
      ],
      "stateMutability": "view",
      "type": "function"
    },
    {
      "inputs": [
        {
          "internalType": "address",
          "name": "_to",
          "type": "address"
        },
        {
          "internalType": "uint256",
          "name": "_amount",
          "type": "uint256"
        }
      ],
      "name": "mint",
      "outputs": [
        {
          "internalType": "bool",
          "name": "",
          "type": "bool"
        }
      ],
      "stateMutability": "nonpayable",
      "type": "function"
    },
    {
      "inputs": [
        {
          "internalType": "address",
          "name": "minter",
          "type": "address"
        }
      ],
      "name": "minterAllowance",
      "outputs": [
        {
          "internalType": "uint256",
          "name": "",
          "type": "uint256"
        }
      ],
      "stateMutability": "view",
      "type": "function"
    },
    {
      "inputs": [],
      "name": "name",
      "outputs": [
        {
          "internalType": "string",
          "name": "",
          "type": "string"
        }
      ],
      "stateMutability": "view",
      "type": "function"
    },
    {
      "inputs": [],
      "name": "newAddress",
      "outputs": [
        {
          "internalType": "address",
          "name": "",
          "type": "address"
        }
      ],
      "stateMutability": "view",
      "type": "function"
    },
    {
      "inputs": [],
      "name": "newBool",
      "outputs": [
        {
          "internalType": "bool",
          "name": "",
          "type": "bool"
        }
      ],
      "stateMutability": "view",
      "type": "function"
    },
    {
      "inputs": [],
      "name": "newUint",
      "outputs": [
        {
          "internalType": "uint256",
          "name": "",
          "type": "uint256"
        }
      ],
      "stateMutability": "view",
      "type": "function"
    },
    {
      "inputs": [],
      "name": "owner",
      "outputs": [
        {
          "internalType": "address",
          "name": "",
          "type": "address"
        }
      ],
      "stateMutability": "view",
      "type": "function"
    },
    {
      "inputs": [],
      "name": "pause",
      "outputs": [],
      "stateMutability": "nonpayable",
      "type": "function"
    },
    {
      "inputs": [],
      "name": "paused",
      "outputs": [
        {
          "internalType": "bool",
          "name": "",
          "type": "bool"
        }
      ],
      "stateMutability": "view",
      "type": "function"
    },
    {
      "inputs": [],
      "name": "pauser",
      "outputs": [
        {
          "internalType": "address",
          "name": "",
          "type": "address"
        }
      ],
      "stateMutability": "view",
      "type": "function"
    },
    {
      "inputs": [
        {
          "internalType": "address",
          "name": "minter",
          "type": "address"
        }
      ],
      "name": "removeMinter",
      "outputs": [
        {
          "internalType": "bool",
          "name": "",
          "type": "bool"
        }
      ],
      "stateMutability": "nonpayable",
      "type": "function"
    },
    {
      "inputs": [],
      "name": "symbol",
      "outputs": [
        {
          "internalType": "string",
          "name": "",
          "type": "string"
        }
      ],
      "stateMutability": "view",
      "type": "function"
    },
    {
      "inputs": [],
      "name": "totalSupply",
      "outputs": [
        {
          "internalType": "uint256",
          "name": "",
          "type": "uint256"
        }
      ],
      "stateMutability": "view",
      "type": "function"
    },
    {
      "inputs": [
        {
          "internalType": "address",
          "name": "to",
          "type": "address"
        },
        {
          "internalType": "uint256",
          "name": "value",
          "type": "uint256"
        }
      ],
      "name": "transfer",
      "outputs": [
        {
          "internalType": "bool",
          "name": "",
          "type": "bool"
        }
      ],
      "stateMutability": "nonpayable",
      "type": "function"
    },
    {
      "inputs": [
        {
          "internalType": "address",
          "name": "from",
          "type": "address"
        },
        {
          "internalType": "address",
          "name": "to",
          "type": "address"
        },
        {
          "internalType": "uint256",
          "name": "value",
          "type": "uint256"
        }
      ],
      "name": "transferFrom",
      "outputs": [
        {
          "internalType": "bool",
          "name": "",
          "type": "bool"
        }
      ],
      "stateMutability": "nonpayable",
      "type": "function"
    },
    {
      "inputs": [
        {
          "internalType": "address",
          "name": "newOwner",
          "type": "address"
        }
      ],
      "name": "transferOwnership",
      "outputs": [],
      "stateMutability": "nonpayable",
      "type": "function"
    },
    {
      "inputs": [
        {
          "internalType": "address",
          "name": "_account",
          "type": "address"
        }
      ],
      "name": "unBlacklist",
      "outputs": [],
      "stateMutability": "nonpayable",
      "type": "function"
    },
    {
      "inputs": [],
      "name": "unpause",
      "outputs": [],
      "stateMutability": "nonpayable",
      "type": "function"
    },
    {
      "inputs": [
        {
          "internalType": "address",
          "name": "_newBlacklister",
          "type": "address"
        }
      ],
      "name": "updateBlacklister",
      "outputs": [],
      "stateMutability": "nonpayable",
      "type": "function"
    },
    {
      "inputs": [
        {
          "internalType": "address",
          "name": "_newMasterMinter",
          "type": "address"
        }
      ],
      "name": "updateMasterMinter",
      "outputs": [],
      "stateMutability": "nonpayable",
      "type": "function"
    },
    {
      "inputs": [
        {
          "internalType": "address",
          "name": "_newPauser",
          "type": "address"
        }
      ],
      "name": "updatePauser",
      "outputs": [],
      "stateMutability": "nonpayable",
      "type": "function"
    },
    {
      "inputs": [
        {
          "internalType": "string",
          "name": "tokenName",
          "type": "string"
        },
        {
          "internalType": "string",
          "name": "tokenSymbol",
          "type": "string"
        },
        {
          "internalType": "string",
          "name": "tokenCurrency",
          "type": "string"
        },
        {
          "internalType": "uint8",
          "name": "tokenDecimals",
          "type": "uint8"
        },
        {
          "internalType": "address",
          "name": "newMasterMinter",
          "type": "address"
        },
        {
          "internalType": "address",
          "name": "newPauser",
          "type": "address"
        },
        {
          "internalType": "address",
          "name": "newBlacklister",
          "type": "address"
        },
        {
          "internalType": "address",
          "name": "newOwner",
          "type": "address"
        }
      ],
      "name": "initialize",
      "outputs": [],
      "stateMutability": "nonpayable",
      "type": "function"
    },
    {
      "inputs": [
        {
          "internalType": "string",
          "name": "tokenName",
          "type": "string"
        },
        {
          "internalType": "string",
          "name": "tokenSymbol",
          "type": "string"
        },
        {
          "internalType": "string",
          "name": "tokenCurrency",
          "type": "string"
        },
        {
          "internalType": "uint8",
          "name": "tokenDecimals",
          "type": "uint8"
        },
        {
          "internalType": "address",
          "name": "newMasterMinter",
          "type": "address"
        },
        {
          "internalType": "address",
          "name": "newPauser",
          "type": "address"
        },
        {
          "internalType": "address",
          "name": "newBlacklister",
          "type": "address"
        },
        {
          "internalType": "address",
          "name": "newOwner",
          "type": "address"
        },
        {
          "internalType": "bool",
          "name": "_newBool",
          "type": "bool"
        },
        {
          "internalType": "address",
          "name": "_newAddress",
          "type": "address"
        },
        {
          "internalType": "uint256",
          "name": "_newUint",
          "type": "uint256"
        }
      ],
      "name": "initialize",
      "outputs": [],
      "stateMutability": "nonpayable",
      "type": "function"
    },
    {
      "inputs": [
        {
          "internalType": "bool",
          "name": "_newBool",
          "type": "bool"
        },
        {
          "internalType": "address",
          "name": "_newAddress",
          "type": "address"
        },
        {
          "internalType": "uint256",
          "name": "_newUint",
          "type": "uint256"
        }
      ],
      "name": "initV2",
      "outputs": [],
      "stateMutability": "nonpayable",
      "type": "function"
    },
    {
      "inputs": [
        {
          "internalType": "address",
          "name": "_newAddress",
          "type": "address"
        }
      ],
      "name": "setNewAddress",
      "outputs": [],
      "stateMutability": "nonpayable",
      "type": "function"
    }
  ],
  "bytecode": "0x60806040526001805460ff60a01b191690556000600b5534801561002257600080fd5b5061002c33610031565b610053565b600080546001600160a01b0319166001600160a01b0392909216919091179055565b61293a806100626000396000f3fe608060405234801561001057600080fd5b50600436106102275760003560e01c80637ec8067211610130578063ad38bf22116100b8578063e5a6b10f1161007c578063e5a6b10f14610948578063f2fde38b14610950578063f9bf772814610976578063f9f92be41461097e578063fe575a87146109a457610227565b8063ad38bf22146108b0578063bd102430146108d6578063ccdb3f45146108de578063d76c43c6146108e6578063dd62ed3e1461091a57610227565b806395d89b41116100ff57806395d89b41146108285780639fd0506d14610830578063a9059cbb14610838578063aa20e1e414610864578063aa271e1a1461088a57610227565b80637ec80672146106a15780638456cb59146107f25780638a6db9c3146107fa5780638da5cb5b1461082057610227565b806335d99f35116101b35780634e44d956116101825780634e44d956146105fb578063554bab3c146106275780635c975abb1461064d57806370a0823114610655578063715879881461067b57610227565b806335d99f35146105865780633f4ba83a146105aa57806340c10f19146105b257806342966c68146105de57610227565b80631a895266116101fa5780631a8952661461030b57806323b872dd146103335780633092afd514610369578063313ce5671461038f5780633357162b146103ad57610227565b806306fdde031461022c578063095ea7b3146102a957806310ae5638146102e957806318160ddd146102f1575b600080fd5b6102346109ca565b6040805160208082528351818301528351919283929083019185019080838360005b8381101561026e578181015183820152602001610256565b50505050905090810190601f16801561029b5780820380516001836020036101000a031916815260200191505b509250505060405180910390f35b6102d5600480360360408110156102bf57600080fd5b506001600160a01b038135169060200135610a58565b604080519115158252519081900360200190f35b6102d5610b6c565b6102f9610b75565b60408051918252519081900360200190f35b6103316004803603602081101561032157600080fd5b50356001600160a01b0316610b7b565b005b6102d56004803603606081101561034957600080fd5b506001600160a01b03813581169160208101359091169060400135610c0d565b6102d56004803603602081101561037f57600080fd5b50356001600160a01b0316610e32565b610397610ed9565b6040805160ff9092168252519081900360200190f35b61033160048036036101008110156103c457600080fd5b810190602081018135600160201b8111156103de57600080fd5b8201836020820111156103f057600080fd5b803590602001918460018302840111600160201b8311171561041157600080fd5b91908080601f0160208091040260200160405190810160405280939291908181526020018383808284376000920191909152509295949360208101935035915050600160201b81111561046357600080fd5b82018360208201111561047557600080fd5b803590602001918460018302840111600160201b8311171561049657600080fd5b91908080601f0160208091040260200160405190810160405280939291908181526020018383808284376000920191909152509295949360208101935035915050600160201b8111156104e857600080fd5b8201836020820111156104fa57600080fd5b803590602001918460018302840111600160201b8311171561051b57600080fd5b91908080601f0160208091040260200160405190810160405280939291908181526020018383808284376000920191909152509295505050813560ff1692505060208101356001600160a01b0390811691604081013582169160608201358116916080013516610ee2565b61058e6110ee565b604080516001600160a01b039092168252519081900360200190f35b6103316110fd565b6102d5600480360360408110156105c857600080fd5b506001600160a01b03813516906020013561117e565b610331600480360360208110156105f457600080fd5b5035611491565b6102d56004803603604081101561061157600080fd5b506001600160a01b0381351690602001356116ab565b6103316004803603602081101561063d57600080fd5b50356001600160a01b03166117b4565b6102d5611896565b6102f96004803603602081101561066b57600080fd5b50356001600160a01b03166118a6565b6103316004803603602081101561069157600080fd5b50356001600160a01b03166118c1565b61033160048036036101608110156106b857600080fd5b810190602081018135600160201b8111156106d257600080fd5b8201836020820111156106e457600080fd5b803590602001918460018302840111600160201b8311171561070557600080fd5b919390929091602081019035600160201b81111561072257600080fd5b82018360208201111561073457600080fd5b803590602001918460018302840111600160201b8311171561075557600080fd5b919390929091602081019035600160201b81111561077257600080fd5b82018360208201111561078457600080fd5b803590602001918460018302840111600160201b831117156107a557600080fd5b919350915060ff813516906001600160a01b03602082013581169160408101358216916060820135811691608081013582169160a082013515159160c08101359091169060e001356118e9565b6103316119d4565b6102f96004803603602081101561081057600080fd5b50356001600160a01b0316611a5b565b61058e611a76565b610234611a85565b61058e611ae0565b6102d56004803603604081101561084e57600080fd5b506001600160a01b038135169060200135611aef565b6103316004803603602081101561087a57600080fd5b50356001600160a01b0316611bf8565b6102d5600480360360208110156108a057600080fd5b50356001600160a01b0316611cda565b610331600480360360208110156108c657600080fd5b50356001600160a01b0316611cf8565b61058e611dda565b61058e611de9565b610331600480360360608110156108fc57600080fd5b5080351515906001600160a01b036020820135169060400135611dfd565b6102f96004803603604081101561093057600080fd5b506001600160a01b0381358116916020013516611e9b565b610234611ec6565b6103316004803603602081101561096657600080fd5b50356001600160a01b0316611f21565b6102f9612007565b6103316004803603602081101561099457600080fd5b50356001600160a01b031661200d565b6102d5600480360360208110156109ba57600080fd5b50356001600160a01b03166120a2565b6004805460408051602060026001851615610100026000190190941693909304601f81018490048402820184019092528181529291830182828015610a505780601f10610a2557610100808354040283529160200191610a50565b820191906000526020600020905b815481529060010190602001808311610a3357829003601f168201915b505050505081565b600154600090600160a01b900460ff1615610aad576040805162461bcd60e51b815260206004820152601060248201526f14185d5cd8589b194e881c185d5cd95960821b604482015290519081900360640190fd5b3360008181526003602052604090205460ff1615610afc5760405162461bcd60e51b81526004018080602001828103825260258152602001806128e06025913960400191505060405180910390fd5b6001600160a01b038416600090815260036020526040902054849060ff1615610b565760405162461bcd60e51b81526004018080602001828103825260258152602001806128e06025913960400191505060405180910390fd5b610b613386866120c0565b506001949350505050565b600e5460ff1681565b600b5490565b6002546001600160a01b03163314610bc45760405162461bcd60e51b815260040180806020018281038252602c8152602001806126ab602c913960400191505060405180910390fd5b6001600160a01b038116600081815260036020526040808220805460ff19169055517f117e3210bb9aa7d9baff172026820255c6f6c30ba8999d1c2fd88e2848137c4e9190a250565b600154600090600160a01b900460ff1615610c62576040805162461bcd60e51b815260206004820152601060248201526f14185d5cd8589b194e881c185d5cd95960821b604482015290519081900360640190fd5b3360008181526003602052604090205460ff1615610cb15760405162461bcd60e51b81526004018080602001828103825260258152602001806128e06025913960400191505060405180910390fd5b6001600160a01b038516600090815260036020526040902054859060ff1615610d0b5760405162461bcd60e51b81526004018080602001828103825260258152602001806128e06025913960400191505060405180910390fd5b6001600160a01b038516600090815260036020526040902054859060ff1615610d655760405162461bcd60e51b81526004018080602001828103825260258152602001806128e06025913960400191505060405180910390fd5b6001600160a01b0387166000908152600a60209081526040808320338452909152902054851115610dc75760405162461bcd60e51b815260040180806020018281038252602881526020018061274d6028913960400191505060405180910390fd5b610dd28787876121ac565b6001600160a01b0387166000908152600a60209081526040808320338452909152902054610e00908661233b565b6001600160a01b0388166000908152600a60209081526040808320338452909152902055600193505050509392505050565b6008546000906001600160a01b03163314610e7e5760405162461bcd60e51b81526004018080602001828103825260298152602001806126826029913960400191505060405180910390fd5b6001600160a01b0382166000818152600c60209081526040808320805460ff19169055600d909152808220829055517fe94479a9f7e1952cc78f2d6baab678adc1b772d936c6583def489e524cb666929190a2506001919050565b60065460ff1681565b600854600160a01b900460ff1615610f2b5760405162461bcd60e51b815260040180806020018281038252602a8152602001806127c3602a913960400191505060405180910390fd5b6001600160a01b038416610f705760405162461bcd60e51b815260040180806020018281038252602f81526020018061271e602f913960400191505060405180910390fd5b6001600160a01b038316610fb55760405162461bcd60e51b815260040180806020018281038252602981526020018061260a6029913960400191505060405180910390fd5b6001600160a01b038216610ffa5760405162461bcd60e51b815260040180806020018281038252602e815260200180612795602e913960400191505060405180910390fd5b6001600160a01b03811661103f5760405162461bcd60e51b81526004018080602001828103825260288152602001806128866028913960400191505060405180910390fd5b87516110529060049060208b0190612497565b5086516110669060059060208a0190612497565b50855161107a906007906020890190612497565b506006805460ff191660ff8716179055600880546001600160a01b03199081166001600160a01b0387811691909117909255600180548216868416179055600280549091169184169190911790556110d181612384565b50506008805460ff60a01b1916600160a01b179055505050505050565b6008546001600160a01b031681565b6001546001600160a01b031633146111465760405162461bcd60e51b81526004018080602001828103825260228152602001806128646022913960400191505060405180910390fd5b6001805460ff60a01b191690556040517f7805862f689e2f13df9f062ff482ad3ad112aca9e0847911ed832e158c525b3390600090a1565b600154600090600160a01b900460ff16156111d3576040805162461bcd60e51b815260206004820152601060248201526f14185d5cd8589b194e881c185d5cd95960821b604482015290519081900360640190fd5b336000908152600c602052604090205460ff166112215760405162461bcd60e51b81526004018080602001828103825260218152602001806126fd6021913960400191505060405180910390fd5b3360008181526003602052604090205460ff16156112705760405162461bcd60e51b81526004018080602001828103825260258152602001806128e06025913960400191505060405180910390fd5b6001600160a01b038416600090815260036020526040902054849060ff16156112ca5760405162461bcd60e51b81526004018080602001828103825260258152602001806128e06025913960400191505060405180910390fd5b6001600160a01b03851661130f5760405162461bcd60e51b815260040180806020018281038252602381526020018061259f6023913960400191505060405180910390fd5b6000841161134e5760405162461bcd60e51b81526004018080602001828103825260298152602001806126336029913960400191505060405180910390fd5b336000908152600d60205260409020548085111561139d5760405162461bcd60e51b815260040180806020018281038252602e815260200180612836602e913960400191505060405180910390fd5b600b546113aa90866123a6565b600b556001600160a01b0386166000908152600960205260409020546113d090866123a6565b6001600160a01b0387166000908152600960205260409020556113f3818661233b565b336000818152600d602090815260409182902093909355805188815290516001600160a01b038a16937fab8530f87dc9b59234c4623bf917212bb2536d647574c8e7e5da92c2ede0c9f8928290030190a36040805186815290516001600160a01b038816916000917fddf252ad1be2c89b69c2b068fc378daa952ba7f163c4a11628f55a4df523b3ef9181900360200190a350600195945050505050565b600154600160a01b900460ff16156114e3576040805162461bcd60e51b815260206004820152601060248201526f14185d5cd8589b194e881c185d5cd95960821b604482015290519081900360640190fd5b336000908152600c602052604090205460ff166115315760405162461bcd60e51b81526004018080602001828103825260218152602001806126fd6021913960400191505060405180910390fd5b3360008181526003602052604090205460ff16156115805760405162461bcd60e51b81526004018080602001828103825260258152602001806128e06025913960400191505060405180910390fd5b33600090815260096020526040902054826115cc5760405162461bcd60e51b81526004018080602001828103825260298152602001806125766029913960400191505060405180910390fd5b8281101561160b5760405162461bcd60e51b81526004018080602001828103825260268152602001806126d76026913960400191505060405180910390fd5b600b54611618908461233b565b600b55611625818461233b565b33600081815260096020908152604091829020939093558051868152905191927fcc16f5dbb4873280815c1ee09dbd06736cffcc184412cf7a71a0fdb75d397ca592918290030190a260408051848152905160009133917fddf252ad1be2c89b69c2b068fc378daa952ba7f163c4a11628f55a4df523b3ef9181900360200190a3505050565b600154600090600160a01b900460ff1615611700576040805162461bcd60e51b815260206004820152601060248201526f14185d5cd8589b194e881c185d5cd95960821b604482015290519081900360640190fd5b6008546001600160a01b031633146117495760405162461bcd60e51b81526004018080602001828103825260298152602001806126826029913960400191505060405180910390fd5b6001600160a01b0383166000818152600c60209081526040808320805460ff19166001179055600d825291829020859055815185815291517f46980fca912ef9bcdbd36877427b6b90e860769f604e89c0e67720cece530d209281900390910190a250600192915050565b6000546001600160a01b03163314611801576040805162461bcd60e51b81526020600482018190526024820152600080516020612775833981519152604482015290519081900360640190fd5b6001600160a01b0381166118465760405162461bcd60e51b815260040180806020018281038252602881526020018061254e6028913960400191505060405180910390fd5b600180546001600160a01b0319166001600160a01b0383811691909117918290556040519116907fb80482a293ca2e013eda8683c9bd7fc8347cfdaeea5ede58cba46df502c2a60490600090a250565b600154600160a01b900460ff1681565b6001600160a01b031660009081526009602052604090205490565b600e80546001600160a01b0390921661010002610100600160a81b0319909216919091179055565b6119b98e8e8080601f016020809104026020016040519081016040528093929190818152602001838380828437600081840152601f19601f820116905080830192505050505050508d8d8080601f016020809104026020016040519081016040528093929190818152602001838380828437600081840152601f19601f820116905080830192505050505050508c8c8080601f0160208091040260200160405190810160405280939291908181526020018383808284376000920191909152508e92508d91508c90508b8b610ee2565b6119c4838383611dfd565b5050505050505050505050505050565b6001546001600160a01b03163314611a1d5760405162461bcd60e51b81526004018080602001828103825260228152602001806128646022913960400191505060405180910390fd5b6001805460ff60a01b1916600160a01b1790556040517f6985a02210a168e66602d3235cb6db0e70f92b3ba4d376a33c0f3d9434bff62590600090a1565b6001600160a01b03166000908152600d602052604090205490565b6000546001600160a01b031690565b6005805460408051602060026001851615610100026000190190941693909304601f81018490048402820184019092528181529291830182828015610a505780601f10610a2557610100808354040283529160200191610a50565b6001546001600160a01b031681565b600154600090600160a01b900460ff1615611b44576040805162461bcd60e51b815260206004820152601060248201526f14185d5cd8589b194e881c185d5cd95960821b604482015290519081900360640190fd5b3360008181526003602052604090205460ff1615611b935760405162461bcd60e51b81526004018080602001828103825260258152602001806128e06025913960400191505060405180910390fd5b6001600160a01b038416600090815260036020526040902054849060ff1615611bed5760405162461bcd60e51b81526004018080602001828103825260258152602001806128e06025913960400191505060405180910390fd5b610b613386866121ac565b6000546001600160a01b03163314611c45576040805162461bcd60e51b81526020600482018190526024820152600080516020612775833981519152604482015290519081900360640190fd5b6001600160a01b038116611c8a5760405162461bcd60e51b815260040180806020018281038252602f81526020018061271e602f913960400191505060405180910390fd5b600880546001600160a01b0319166001600160a01b0383811691909117918290556040519116907fdb66dfa9c6b8f5226fe9aac7e51897ae8ee94ac31dc70bb6c9900b2574b707e690600090a250565b6001600160a01b03166000908152600c602052604090205460ff1690565b6000546001600160a01b03163314611d45576040805162461bcd60e51b81526020600482018190526024820152600080516020612775833981519152604482015290519081900360640190fd5b6001600160a01b038116611d8a5760405162461bcd60e51b81526004018080602001828103825260328152602001806128ae6032913960400191505060405180910390fd5b600280546001600160a01b0319166001600160a01b0383811691909117918290556040519116907fc67398012c111ce95ecb7429b933096c977380ee6c421175a71a4a4c6c88c06e90600090a250565b6002546001600160a01b031681565b600e5461010090046001600160a01b031681565b60105460ff1615611e55576040805162461bcd60e51b815260206004820152601f60248201527f636f6e747261637420697320616c726561647920696e697469616c697a656400604482015290519081900360640190fd5b600e80546001600160a01b0390931661010002610100600160a81b031994151560ff19948516179490941693909317909255600f91909155601080549091166001179055565b6001600160a01b039182166000908152600a6020908152604080832093909416825291909152205490565b6007805460408051602060026001851615610100026000190190941693909304601f81018490048402820184019092528181529291830182828015610a505780601f10610a2557610100808354040283529160200191610a50565b6000546001600160a01b03163314611f6e576040805162461bcd60e51b81526020600482018190526024820152600080516020612775833981519152604482015290519081900360640190fd5b6001600160a01b038116611fb35760405162461bcd60e51b81526004018080602001828103825260268152602001806125c26026913960400191505060405180910390fd5b600054604080516001600160a01b039283168152918316602083015280517f8be0079c531659141344cd1fd0a4f28419497f9722a3daafe3b4186f6b6457e09281900390910190a161200481612384565b50565b600f5481565b6002546001600160a01b031633146120565760405162461bcd60e51b815260040180806020018281038252602c8152602001806126ab602c913960400191505060405180910390fd5b6001600160a01b038116600081815260036020526040808220805460ff19166001179055517fffa4e6181777692565cf28528fc88fd1516ea86b56da075235fa575af6a4b8559190a250565b6001600160a01b031660009081526003602052604090205460ff1690565b6001600160a01b0383166121055760405162461bcd60e51b81526004018080602001828103825260248152602001806128126024913960400191505060405180910390fd5b6001600160a01b03821661214a5760405162461bcd60e51b81526004018080602001828103825260228152602001806125e86022913960400191505060405180910390fd5b6001600160a01b038084166000818152600a6020908152604080832094871680845294825291829020859055815185815291517f8c5be1e5ebec7d5bd14f71427d1e84f3dd0314c0f7b2291e5b200ac8c7c3b9259281900390910190a3505050565b6001600160a01b0383166121f15760405162461bcd60e51b81526004018080602001828103825260258152602001806127ed6025913960400191505060405180910390fd5b6001600160a01b0382166122365760405162461bcd60e51b815260040180806020018281038252602381526020018061252b6023913960400191505060405180910390fd5b6001600160a01b03831660009081526009602052604090205481111561228d5760405162461bcd60e51b815260040180806020018281038252602681526020018061265c6026913960400191505060405180910390fd5b6001600160a01b0383166000908152600960205260409020546122b0908261233b565b6001600160a01b0380851660009081526009602052604080822093909355908416815220546122df90826123a6565b6001600160a01b0380841660008181526009602090815260409182902094909455805185815290519193928716927fddf252ad1be2c89b69c2b068fc378daa952ba7f163c4a11628f55a4df523b3ef92918290030190a3505050565b600061237d83836040518060400160405280601e81526020017f536166654d6174683a207375627472616374696f6e206f766572666c6f770000815250612400565b9392505050565b600080546001600160a01b0319166001600160a01b0392909216919091179055565b60008282018381101561237d576040805162461bcd60e51b815260206004820152601b60248201527f536166654d6174683a206164646974696f6e206f766572666c6f770000000000604482015290519081900360640190fd5b6000818484111561248f5760405162461bcd60e51b81526004018080602001828103825283818151815260200191508051906020019080838360005b8381101561245457818101518382015260200161243c565b50505050905090810190601f1680156124815780820380516001836020036101000a031916815260200191505b509250505060405180910390fd5b505050900390565b828054600181600116156101000203166002900490600052602060002090601f016020900481019282601f106124d857805160ff1916838001178555612505565b82800160010185558215612505579182015b828111156125055782518255916020019190600101906124ea565b50612511929150612515565b5090565b5b80821115612511576000815560010161251656fe45524332303a207472616e7366657220746f20746865207a65726f20616464726573735061757361626c653a206e65772070617573657220697320746865207a65726f206164647265737346696174546f6b656e3a206275726e20616d6f756e74206e6f742067726561746572207468616e203046696174546f6b656e3a206d696e7420746f20746865207a65726f20616464726573734f776e61626c653a206e6577206f776e657220697320746865207a65726f206164647265737345524332303a20617070726f766520746f20746865207a65726f206164647265737346696174546f6b656e3a206e65772070617573657220697320746865207a65726f206164647265737346696174546f6b656e3a206d696e7420616d6f756e74206e6f742067726561746572207468616e203045524332303a207472616e7366657220616d6f756e7420657863656564732062616c616e636546696174546f6b656e3a2063616c6c6572206973206e6f7420746865206d61737465724d696e746572426c61636b6c69737461626c653a2063616c6c6572206973206e6f742074686520626c61636b6c697374657246696174546f6b656e3a206275726e20616d6f756e7420657863656564732062616c616e636546696174546f6b656e3a2063616c6c6572206973206e6f742061206d696e74657246696174546f6b656e3a206e6577206d61737465724d696e74657220697320746865207a65726f206164647265737345524332303a207472616e7366657220616d6f756e74206578636565647320616c6c6f77616e63654f776e61626c653a2063616c6c6572206973206e6f7420746865206f776e657246696174546f6b656e3a206e657720626c61636b6c697374657220697320746865207a65726f206164647265737346696174546f6b656e3a20636f6e747261637420697320616c726561647920696e697469616c697a656445524332303a207472616e736665722066726f6d20746865207a65726f206164647265737345524332303a20617070726f76652066726f6d20746865207a65726f206164647265737346696174546f6b656e3a206d696e7420616d6f756e742065786365656473206d696e746572416c6c6f77616e63655061757361626c653a2063616c6c6572206973206e6f74207468652070617573657246696174546f6b656e3a206e6577206f776e657220697320746865207a65726f2061646472657373426c61636b6c69737461626c653a206e657720626c61636b6c697374657220697320746865207a65726f2061646472657373426c61636b6c69737461626c653a206163636f756e7420697320626c61636b6c6973746564a2646970667358221220ab8b2b611354de2f39e2455894150ddedf0aff9a20a5e16393265b30687abdd164736f6c634300060c0033",
  "immutableReferences": {},
  "source": "/**\n * SPDX-License-Identifier: MIT\n *\n * Copyright (c) 2018 zOS Global Limited.\n *\n * Permission is hereby granted, free of charge, to any person obtaining a copy\n * of this software and associated documentation files (the \"Software\"), to deal\n * in the Software without restriction, including without limitation the rights\n * to use, copy, modify, merge, publish, distribute, sublicense, and/or sell\n * copies of the Software, and to permit persons to whom the Software is\n * furnished to do so, subject to the following conditions:\n *\n * The above copyright notice and this permission notice shall be included in\n * copies or substantial portions of the Software.\n *\n * THE SOFTWARE IS PROVIDED \"AS IS\", WITHOUT WARRANTY OF ANY KIND, EXPRESS OR\n * IMPLIED, INCLUDING BUT NOT LIMITED TO THE WARRANTIES OF MERCHANTABILITY,\n * FITNESS FOR A PARTICULAR PURPOSE AND NONINFRINGEMENT. IN NO EVENT SHALL THE\n * AUTHORS OR COPYRIGHT HOLDERS BE LIABLE FOR ANY CLAIM, DAMAGES OR OTHER\n * LIABILITY, WHETHER IN AN ACTION OF CONTRACT, TORT OR OTHERWISE, ARISING FROM,\n * OUT OF OR IN CONNECTION WITH THE SOFTWARE OR THE USE OR OTHER DEALINGS IN THE\n * SOFTWARE.\n */\n\npragma solidity 0.6.12;\n\nimport { FiatTokenV1 } from \"../v1/FiatTokenV1.sol\";\n\n/**\n * @title UpgradedFiatTokenNewFieldsNewLogicTest\n * @dev ERC20 Token backed by fiat reserves\n */\ncontract UpgradedFiatTokenNewFieldsNewLogicTest is FiatTokenV1 {\n    bool public newBool;\n    address public newAddress;\n    uint256 public newUint;\n    bool internal initializedV2;\n\n    function initialize(\n        string calldata tokenName,\n        string calldata tokenSymbol,\n        string calldata tokenCurrency,\n        uint8 tokenDecimals,\n        address newMasterMinter,\n        address newPauser,\n        address newBlacklister,\n        address newOwner,\n        bool _newBool,\n        address _newAddress,\n        uint256 _newUint\n    ) external {\n        super.initialize(\n            tokenName,\n            tokenSymbol,\n            tokenCurrency,\n            tokenDecimals,\n            newMasterMinter,\n            newPauser,\n            newBlacklister,\n            newOwner\n        );\n        initV2(_newBool, _newAddress, _newUint);\n    }\n\n    function initV2(\n        bool _newBool,\n        address _newAddress,\n        uint256 _newUint\n    ) public {\n        require(!initializedV2, \"contract is already initialized\");\n        newBool = _newBool;\n        newAddress = _newAddress;\n        newUint = _newUint;\n        initializedV2 = true;\n    }\n\n    function setNewAddress(address _newAddress) external {\n        newAddress = _newAddress;\n    }\n}\n",
  "sourcePath": "/Users/usr0102794/centre-tokens/contracts/test/UpgradedFiatTokenNewFieldsNewLogicTest.sol",
  "compiler": {
    "name": "solc",
    "version": "0.6.12+commit.27d51765.Emscripten.clang"
  },
  "schemaVersion": "3.2.2",
  "updatedAt": "2020-09-05T23:45:29.775Z",
  "devdoc": {
    "details": "ERC20 Token backed by fiat reserves",
    "kind": "dev",
    "methods": {
      "allowance(address,address)": {
        "params": {
          "owner": "Token owner's address",
          "spender": "Spender's address"
        },
        "returns": {
          "_0": "Allowance amount"
        }
      },
      "approve(address,uint256)": {
        "params": {
          "spender": "Spender's address",
          "value": "Allowance amount"
        },
        "returns": {
          "_0": "True if successful"
        }
      },
      "balanceOf(address)": {
        "details": "Get token balance of an account",
        "params": {
          "account": "address The account"
        }
      },
      "blacklist(address)": {
        "details": "Adds account to blacklist",
        "params": {
          "_account": "The address to blacklist"
        }
      },
      "burn(uint256)": {
        "details": "allows a minter to burn some of its own tokens Validates that caller is a minter and that sender is not blacklisted amount is less than or equal to the minter's account balance",
        "params": {
          "_amount": "uint256 the amount of tokens to be burned"
        }
      },
      "configureMinter(address,uint256)": {
        "details": "Function to add/update a new minter",
        "params": {
          "minter": "The address of the minter",
          "minterAllowedAmount": "The minting amount allowed for the minter"
        },
        "returns": {
          "_0": "True if the operation was successful."
        }
      },
      "isBlacklisted(address)": {
        "details": "Checks if account is blacklisted",
        "params": {
          "_account": "The address to check"
        }
      },
      "isMinter(address)": {
        "details": "Checks if account is a minter",
        "params": {
          "account": "The address to check"
        }
      },
      "mint(address,uint256)": {
        "details": "Function to mint tokens",
        "params": {
          "_amount": "The amount of tokens to mint. Must be less than or equal to the minterAllowance of the caller.",
          "_to": "The address that will receive the minted tokens."
        },
        "returns": {
          "_0": "A boolean that indicates if the operation was successful."
        }
      },
      "minterAllowance(address)": {
        "details": "Get minter allowance for an account",
        "params": {
          "minter": "The address of the minter"
        }
      },
      "owner()": {
        "details": "Tells the address of the owner",
        "returns": {
          "_0": "the address of the owner"
        }
      },
      "pause()": {
        "details": "called by the owner to pause, triggers stopped state"
      },
      "removeMinter(address)": {
        "details": "Function to remove a minter",
        "params": {
          "minter": "The address of the minter to remove"
        },
        "returns": {
          "_0": "True if the operation was successful."
        }
      },
      "totalSupply()": {
        "details": "Get totalSupply of token"
      },
      "transfer(address,uint256)": {
        "params": {
          "to": "Payee's address",
          "value": "Transfer amount"
        },
        "returns": {
          "_0": "True if successful"
        }
      },
      "transferFrom(address,address,uint256)": {
        "params": {
          "from": "Payer's address",
          "to": "Payee's address",
          "value": "Transfer amount"
        },
        "returns": {
          "_0": "True if successful"
        }
      },
      "transferOwnership(address)": {
        "details": "Allows the current owner to transfer control of the contract to a newOwner.",
        "params": {
          "newOwner": "The address to transfer ownership to."
        }
      },
      "unBlacklist(address)": {
        "details": "Removes account from blacklist",
        "params": {
          "_account": "The address to remove from the blacklist"
        }
      },
      "unpause()": {
        "details": "called by the owner to unpause, returns to normal state"
      },
      "updatePauser(address)": {
        "details": "update the pauser role"
      }
    },
    "title": "UpgradedFiatTokenNewFieldsNewLogicTest",
    "version": 1
  },
  "userdoc": {
    "kind": "user",
    "methods": {
      "allowance(address,address)": {
        "notice": "Amount of remaining tokens spender is allowed to transfer on behalf of the token owner"
      },
      "approve(address,uint256)": {
        "notice": "Set spender's allowance over the caller's tokens to be a given value."
      },
      "transfer(address,uint256)": {
        "notice": "Transfer tokens from the caller"
      },
      "transferFrom(address,address,uint256)": {
        "notice": "Transfer tokens by spending allowance"
      }
    },
    "version": 1
  }
}