{
  "contractName": "V2UpgraderHelper",
  "abi": [
    {
      "inputs": [
        {
          "internalType": "address",
          "name": "fiatTokenProxy",
          "type": "address"
        }
      ],
      "stateMutability": "nonpayable",
      "type": "constructor"
    },
    {
      "anonymous": false,
      "inputs": [
        {
          "indexed": false,
          "internalType": "address",
          "name": "previousOwner",
          "type": "address"
        },
        {
          "indexed": false,
          "internalType": "address",
          "name": "newOwner",
          "type": "address"
        }
      ],
      "name": "OwnershipTransferred",
      "type": "event"
    },
    {
      "inputs": [],
      "name": "owner",
      "outputs": [
        {
          "internalType": "address",
          "name": "",
          "type": "address"
        }
      ],
      "stateMutability": "view",
      "type": "function"
    },
    {
      "inputs": [
        {
          "internalType": "address",
          "name": "newOwner",
          "type": "address"
        }
      ],
      "name": "transferOwnership",
      "outputs": [],
      "stateMutability": "nonpayable",
      "type": "function"
    },
    {
      "inputs": [],
      "name": "proxy",
      "outputs": [
        {
          "internalType": "address",
          "name": "",
          "type": "address"
        }
      ],
      "stateMutability": "view",
      "type": "function"
    },
    {
      "inputs": [],
      "name": "name",
      "outputs": [
        {
          "internalType": "string",
          "name": "",
          "type": "string"
        }
      ],
      "stateMutability": "view",
      "type": "function"
    },
    {
      "inputs": [],
      "name": "symbol",
      "outputs": [
        {
          "internalType": "string",
          "name": "",
          "type": "string"
        }
      ],
      "stateMutability": "view",
      "type": "function"
    },
    {
      "inputs": [],
      "name": "decimals",
      "outputs": [
        {
          "internalType": "uint8",
          "name": "",
          "type": "uint8"
        }
      ],
      "stateMutability": "view",
      "type": "function"
    },
    {
      "inputs": [],
      "name": "currency",
      "outputs": [
        {
          "internalType": "string",
          "name": "",
          "type": "string"
        }
      ],
      "stateMutability": "view",
      "type": "function"
    },
    {
      "inputs": [],
      "name": "masterMinter",
      "outputs": [
        {
          "internalType": "address",
          "name": "",
          "type": "address"
        }
      ],
      "stateMutability": "view",
      "type": "function"
    },
    {
      "inputs": [],
      "name": "fiatTokenOwner",
      "outputs": [
        {
          "internalType": "address",
          "name": "",
          "type": "address"
        }
      ],
      "stateMutability": "view",
      "type": "function"
    },
    {
      "inputs": [],
      "name": "pauser",
      "outputs": [
        {
          "internalType": "address",
          "name": "",
          "type": "address"
        }
      ],
      "stateMutability": "view",
      "type": "function"
    },
    {
      "inputs": [],
      "name": "blacklister",
      "outputs": [
        {
          "internalType": "address",
          "name": "",
          "type": "address"
        }
      ],
      "stateMutability": "view",
      "type": "function"
    },
    {
      "inputs": [
        {
          "internalType": "address",
          "name": "account",
          "type": "address"
        }
      ],
      "name": "balanceOf",
      "outputs": [
        {
          "internalType": "uint256",
          "name": "",
          "type": "uint256"
        }
      ],
      "stateMutability": "view",
      "type": "function"
    },
    {
      "inputs": [
        {
          "internalType": "address",
          "name": "from",
          "type": "address"
        },
        {
          "internalType": "address",
          "name": "to",
          "type": "address"
        },
        {
          "internalType": "uint256",
          "name": "value",
          "type": "uint256"
        }
      ],
      "name": "transferFrom",
      "outputs": [
        {
          "internalType": "bool",
          "name": "",
          "type": "bool"
        }
      ],
      "stateMutability": "nonpayable",
      "type": "function"
    },
    {
      "inputs": [],
      "name": "tearDown",
      "outputs": [],
      "stateMutability": "nonpayable",
      "type": "function"
    }
  ],
  "bytecode": "0x608060405234801561001057600080fd5b506040516109853803806109858339818101604052602081101561003357600080fd5b505161003e33610063565b600180546001600160a01b0319166001600160a01b0392909216919091179055610085565b600080546001600160a01b0319166001600160a01b0392909216919091179055565b6108f1806100946000396000f3fe608060405234801561001057600080fd5b50600436106100ea5760003560e01c806395d89b411161008c578063e5a6b10f11610066578063e5a6b10f14610258578063ec1e6a4f14610260578063ec5568891461026a578063f2fde38b14610272576100ea565b806395d89b41146102405780639fd0506d14610248578063bd10243014610250576100ea565b806335d99f35116100c857806335d99f35146101d45780636d3c5bbe146101f857806370a08231146102005780638da5cb5b14610238576100ea565b806306fdde03146100ef57806323b872dd1461016c578063313ce567146101b6575b600080fd5b6100f7610298565b6040805160208082528351818301528351919283929083019185019080838360005b83811015610131578181015183820152602001610119565b50505050905090810190601f16801561015e5780820380516001836020036101000a031916815260200191505b509250505060405180910390f35b6101a26004803603606081101561018257600080fd5b506001600160a01b038135811691602081013590911690604001356103cf565b604080519115158252519081900360200190f35b6101be610464565b6040805160ff9092168252519081900360200190f35b6101dc6104da565b604080516001600160a01b039092168252519081900360200190f35b6101dc61051f565b6102266004803603602081101561021657600080fd5b50356001600160a01b0316610564565b60408051918252519081900360200190f35b6101dc6105e7565b6100f76105f6565b6101dc61063b565b6101dc610680565b6100f76106c5565b61026861070a565b005b6101dc61076c565b6102686004803603602081101561028857600080fd5b50356001600160a01b031661077b565b600154604080516306fdde0360e01b815290516060926001600160a01b0316916306fdde03916004808301926000929190829003018186803b1580156102dd57600080fd5b505afa1580156102f1573d6000803e3d6000fd5b505050506040513d6000823e601f3d908101601f19168201604052602081101561031a57600080fd5b810190808051604051939291908464010000000082111561033a57600080fd5b90830190602082018581111561034f57600080fd5b825164010000000081118282018810171561036957600080fd5b82525081516020918201929091019080838360005b8381101561039657818101518382015260200161037e565b50505050905090810190601f1680156103c35780820380516001836020036101000a031916815260200191505b50604052505050905090565b600154604080516323b872dd60e01b81526001600160a01b038681166004830152858116602483015260448201859052915160009392909216916323b872dd9160648082019260209290919082900301818787803b15801561043057600080fd5b505af1158015610444573d6000803e3d6000fd5b505050506040513d602081101561045a57600080fd5b5051949350505050565b6001546040805163313ce56760e01b815290516000926001600160a01b03169163313ce567916004808301926020929190829003018186803b1580156104a957600080fd5b505afa1580156104bd573d6000803e3d6000fd5b505050506040513d60208110156104d357600080fd5b5051905090565b600154604080516335d99f3560e01b815290516000926001600160a01b0316916335d99f35916004808301926020929190829003018186803b1580156104a957600080fd5b60015460408051638da5cb5b60e01b815290516000926001600160a01b031691638da5cb5b916004808301926020929190829003018186803b1580156104a957600080fd5b600154604080516370a0823160e01b81526001600160a01b038481166004830152915160009392909216916370a0823191602480820192602092909190829003018186803b1580156105b557600080fd5b505afa1580156105c9573d6000803e3d6000fd5b505050506040513d60208110156105df57600080fd5b505192915050565b6000546001600160a01b031690565b600154604080516395d89b4160e01b815290516060926001600160a01b0316916395d89b41916004808301926000929190829003018186803b1580156102dd57600080fd5b60015460408051639fd0506d60e01b815290516000926001600160a01b031691639fd0506d916004808301926020929190829003018186803b1580156104a957600080fd5b60015460408051630bd1024360e41b815290516000926001600160a01b03169163bd102430916004808301926020929190829003018186803b1580156104a957600080fd5b6001546040805163e5a6b10f60e01b815290516060926001600160a01b03169163e5a6b10f916004808301926000929190829003018186803b1580156102dd57600080fd5b6000546001600160a01b03163314610769576040805162461bcd60e51b815260206004820181905260248201527f4f776e61626c653a2063616c6c6572206973206e6f7420746865206f776e6572604482015290519081900360640190fd5b33ff5b6001546001600160a01b031690565b6000546001600160a01b031633146107da576040805162461bcd60e51b815260206004820181905260248201527f4f776e61626c653a2063616c6c6572206973206e6f7420746865206f776e6572604482015290519081900360640190fd5b6001600160a01b03811661081f5760405162461bcd60e51b81526004018080602001828103825260268152602001806108966026913960400191505060405180910390fd5b600054604080516001600160a01b039283168152918316602083015280517f8be0079c531659141344cd1fd0a4f28419497f9722a3daafe3b4186f6b6457e09281900390910190a161087081610873565b50565b600080546001600160a01b0319166001600160a01b039290921691909117905556fe4f776e61626c653a206e6577206f776e657220697320746865207a65726f2061646472657373a2646970667358221220625784802bc59b272126058c5aeb6d10dbce577e065bcee2a079779a73ac7c6364736f6c634300060c0033",
  "immutableReferences": {},
  "source": "/**\n * SPDX-License-Identifier: MIT\n *\n * Copyright (c) 2018-2020 CENTRE SECZ\n *\n * Permission is hereby granted, free of charge, to any person obtaining a copy\n * of this software and associated documentation files (the \"Software\"), to deal\n * in the Software without restriction, including without limitation the rights\n * to use, copy, modify, merge, publish, distribute, sublicense, and/or sell\n * copies of the Software, and to permit persons to whom the Software is\n * furnished to do so, subject to the following conditions:\n *\n * The above copyright notice and this permission notice shall be included in\n * copies or substantial portions of the Software.\n *\n * THE SOFTWARE IS PROVIDED \"AS IS\", WITHOUT WARRANTY OF ANY KIND, EXPRESS OR\n * IMPLIED, INCLUDING BUT NOT LIMITED TO THE WARRANTIES OF MERCHANTABILITY,\n * FITNESS FOR A PARTICULAR PURPOSE AND NONINFRINGEMENT. IN NO EVENT SHALL THE\n * AUTHORS OR COPYRIGHT HOLDERS BE LIABLE FOR ANY CLAIM, DAMAGES OR OTHER\n * LIABILITY, WHETHER IN AN ACTION OF CONTRACT, TORT OR OTHERWISE, ARISING FROM,\n * OUT OF OR IN CONNECTION WITH THE SOFTWARE OR THE USE OR OTHER DEALINGS IN THE\n * SOFTWARE.\n */\n\npragma solidity 0.6.12;\n\nimport { FiatTokenV1 } from \"../../v1/FiatTokenV1.sol\";\nimport { Ownable } from \"../../v1/Ownable.sol\";\n\n/**\n * @title V2 Upgrader Helper\n * @dev Enables V2Upgrader to read some contract state before it renounces the\n * proxy admin role. (Proxy admins cannot call delegated methods.) It is also\n * used to test approve/transferFrom.\n */\ncontract V2UpgraderHelper is Ownable {\n    address private _proxy;\n\n    /**\n     * @notice Constructor\n     * @param fiatTokenProxy    Address of the FiatTokenProxy contract\n     */\n    constructor(address fiatTokenProxy) public Ownable() {\n        _proxy = fiatTokenProxy;\n    }\n\n    /**\n     * @notice The address of the FiatTokenProxy contract\n     * @return Contract address\n     */\n    function proxy() external view returns (address) {\n        return address(_proxy);\n    }\n\n    /**\n     * @notice Call name()\n     * @return name\n     */\n    function name() external view returns (string memory) {\n        return FiatTokenV1(_proxy).name();\n    }\n\n    /**\n     * @notice Call symbol()\n     * @return symbol\n     */\n    function symbol() external view returns (string memory) {\n        return FiatTokenV1(_proxy).symbol();\n    }\n\n    /**\n     * @notice Call decimals()\n     * @return decimals\n     */\n    function decimals() external view returns (uint8) {\n        return FiatTokenV1(_proxy).decimals();\n    }\n\n    /**\n     * @notice Call currency()\n     * @return currency\n     */\n    function currency() external view returns (string memory) {\n        return FiatTokenV1(_proxy).currency();\n    }\n\n    /**\n     * @notice Call masterMinter()\n     * @return masterMinter\n     */\n    function masterMinter() external view returns (address) {\n        return FiatTokenV1(_proxy).masterMinter();\n    }\n\n    /**\n     * @notice Call owner()\n     * @dev Renamed to fiatTokenOwner due to the existence of Ownable.owner()\n     * @return owner\n     */\n    function fiatTokenOwner() external view returns (address) {\n        return FiatTokenV1(_proxy).owner();\n    }\n\n    /**\n     * @notice Call pauser()\n     * @return pauser\n     */\n    function pauser() external view returns (address) {\n        return FiatTokenV1(_proxy).pauser();\n    }\n\n    /**\n     * @notice Call blacklister()\n     * @return blacklister\n     */\n    function blacklister() external view returns (address) {\n        return FiatTokenV1(_proxy).blacklister();\n    }\n\n    /**\n     * @notice Call balanceOf(address)\n     * @param account   Account\n     * @return balance\n     */\n    function balanceOf(address account) external view returns (uint256) {\n        return FiatTokenV1(_proxy).balanceOf(account);\n    }\n\n    /**\n     * @notice Call transferFrom(address,address,uint256)\n     * @param from     Sender\n     * @param to       Recipient\n     * @param value    Amount\n     * @return result\n     */\n    function transferFrom(\n        address from,\n        address to,\n        uint256 value\n    ) external returns (bool) {\n        return FiatTokenV1(_proxy).transferFrom(from, to, value);\n    }\n\n    /**\n     * @notice Tear down the contract (self-destruct)\n     */\n    function tearDown() external onlyOwner {\n        selfdestruct(msg.sender);\n    }\n}\n",
  "sourcePath": "/Users/usr0102794/centre-tokens/contracts/v2/upgrader/V2UpgraderHelper.sol",
  "compiler": {
    "name": "solc",
    "version": "0.6.12+commit.27d51765.Emscripten.clang"
  },
  "schemaVersion": "3.2.2",
  "updatedAt": "2020-09-05T23:45:29.901Z",
  "devdoc": {
    "details": "Enables V2Upgrader to read some contract state before it renounces the proxy admin role. (Proxy admins cannot call delegated methods.) It is also used to test approve/transferFrom.",
    "kind": "dev",
    "methods": {
      "balanceOf(address)": {
        "params": {
          "account": "Account"
        },
        "returns": {
          "_0": "balance"
        }
      },
      "blacklister()": {
        "returns": {
          "_0": "blacklister"
        }
      },
      "constructor": {
        "params": {
          "fiatTokenProxy": "Address of the FiatTokenProxy contract"
        }
      },
      "currency()": {
        "returns": {
          "_0": "currency"
        }
      },
      "decimals()": {
        "returns": {
          "_0": "decimals"
        }
      },
      "fiatTokenOwner()": {
        "details": "Renamed to fiatTokenOwner due to the existence of Ownable.owner()",
        "returns": {
          "_0": "owner"
        }
      },
      "masterMinter()": {
        "returns": {
          "_0": "masterMinter"
        }
      },
      "name()": {
        "returns": {
          "_0": "name"
        }
      },
      "owner()": {
        "details": "Tells the address of the owner",
        "returns": {
          "_0": "the address of the owner"
        }
      },
      "pauser()": {
        "returns": {
          "_0": "pauser"
        }
      },
      "proxy()": {
        "returns": {
          "_0": "Contract address"
        }
      },
      "symbol()": {
        "returns": {
          "_0": "symbol"
        }
      },
      "transferFrom(address,address,uint256)": {
        "params": {
          "from": "Sender",
          "to": "Recipient",
          "value": "Amount"
        },
        "returns": {
          "_0": "result"
        }
      },
      "transferOwnership(address)": {
        "details": "Allows the current owner to transfer control of the contract to a newOwner.",
        "params": {
          "newOwner": "The address to transfer ownership to."
        }
      }
    },
    "title": "V2 Upgrader Helper",
    "version": 1
  },
  "userdoc": {
    "kind": "user",
    "methods": {
      "balanceOf(address)": {
        "notice": "Call balanceOf(address)"
      },
      "blacklister()": {
        "notice": "Call blacklister()"
      },
      "constructor": "Constructor",
      "currency()": {
        "notice": "Call currency()"
      },
      "decimals()": {
        "notice": "Call decimals()"
      },
      "fiatTokenOwner()": {
        "notice": "Call owner()"
      },
      "masterMinter()": {
        "notice": "Call masterMinter()"
      },
      "name()": {
        "notice": "Call name()"
      },
      "pauser()": {
        "notice": "Call pauser()"
      },
      "proxy()": {
        "notice": "The address of the FiatTokenProxy contract"
      },
      "symbol()": {
        "notice": "Call symbol()"
      },
      "tearDown()": {
        "notice": "Tear down the contract (self-destruct)"
      },
      "transferFrom(address,address,uint256)": {
        "notice": "Call transferFrom(address,address,uint256)"
      }
    },
    "version": 1
  }
}